{"abi":[{"type":"function","name":"balanceCheck","inputs":[],"outputs":[{"name":"","type":"uint256","internalType":"uint256"}],"stateMutability":"view"},{"type":"function","name":"deposit","inputs":[],"outputs":[],"stateMutability":"payable"},{"type":"function","name":"withdraw","inputs":[{"name":"amount","type":"uint256","internalType":"uint256"}],"outputs":[],"stateMutability":"nonpayable"},{"type":"event","name":"Deposited","inputs":[{"name":"amount","type":"uint256","indexed":false,"internalType":"uint256"},{"name":"depositor","type":"address","indexed":true,"internalType":"address"}],"anonymous":false},{"type":"event","name":"Withdrawn","inputs":[{"name":"amount","type":"uint256","indexed":false,"internalType":"uint256"},{"name":"withdrawal","type":"address","indexed":true,"internalType":"address"}],"anonymous":false},{"type":"error","name":"InsufficientWD","inputs":[]},{"type":"error","name":"ZeroDeposit","inputs":[]},{"type":"error","name":"ZeroWithdrawal","inputs":[]}],"bytecode":{"object":"0x6080604052348015600e575f5ffd5b506105b88061001c5f395ff3fe608060405260043610610033575f3560e01c80632e1a7d4d146100375780634ba6f28e1461005f578063d0e30db014610089575b5f5ffd5b348015610042575f5ffd5b5061005d600480360381019061005891906103e3565b610093565b005b34801561006a575f5ffd5b5061007361028e565b604051610080919061041d565b60405180910390f35b6100916102d1565b005b5f81036100cc576040517fc60050c000000000000000000000000000000000000000000000000000000000815260040160405180910390fd5b805f5f3373ffffffffffffffffffffffffffffffffffffffff1673ffffffffffffffffffffffffffffffffffffffff1681526020019081526020015f20541015610142576040517ff0d58c4000000000000000000000000000000000000000000000000000000000815260040160405180910390fd5b805f5f3373ffffffffffffffffffffffffffffffffffffffff1673ffffffffffffffffffffffffffffffffffffffff1681526020019081526020015f205f82825461018d9190610463565b925050819055505f3373ffffffffffffffffffffffffffffffffffffffff16826040516101b9906104c3565b5f6040518083038185875af1925050503d805f81146101f3576040519150601f19603f3d011682016040523d82523d5f602084013e6101f8565b606091505b505090508061023c576040517f08c379a000000000000000000000000000000000000000000000000000000000815260040161023390610531565b60405180910390fd5b3373ffffffffffffffffffffffffffffffffffffffff167f8c7cdad0d12a8db3e23561b42da6f10c8137914c97beff202213a410e1f520a383604051610282919061041d565b60405180910390a25050565b5f5f5f3373ffffffffffffffffffffffffffffffffffffffff1673ffffffffffffffffffffffffffffffffffffffff1681526020019081526020015f2054905090565b5f340361030a576040517f56316e8700000000000000000000000000000000000000000000000000000000815260040160405180910390fd5b345f5f3373ffffffffffffffffffffffffffffffffffffffff1673ffffffffffffffffffffffffffffffffffffffff1681526020019081526020015f205f828254610355919061054f565b925050819055503373ffffffffffffffffffffffffffffffffffffffff167f21d3f238b5a9e25ffc48b8320bc1d58882b1d90d0b4fcc7ba9707e3aebfedf16346040516103a2919061041d565b60405180910390a2565b5f5ffd5b5f819050919050565b6103c2816103b0565b81146103cc575f5ffd5b50565b5f813590506103dd816103b9565b92915050565b5f602082840312156103f8576103f76103ac565b5b5f610405848285016103cf565b91505092915050565b610417816103b0565b82525050565b5f6020820190506104305f83018461040e565b92915050565b7f4e487b71000000000000000000000000000000000000000000000000000000005f52601160045260245ffd5b5f61046d826103b0565b9150610478836103b0565b92508282039050818111156104905761048f610436565b5b92915050565b5f81905092915050565b50565b5f6104ae5f83610496565b91506104b9826104a0565b5f82019050919050565b5f6104cd826104a3565b9150819050919050565b5f82825260208201905092915050565b7f5744204661696c656400000000000000000000000000000000000000000000005f82015250565b5f61051b6009836104d7565b9150610526826104e7565b602082019050919050565b5f6020820190508181035f8301526105488161050f565b9050919050565b5f610559826103b0565b9150610564836103b0565b925082820190508082111561057c5761057b610436565b5b9291505056fea26469706673582212209b0a322636ba9c17289b2fd801950ffa864c49739fe690b6d119ed266cd449ef64736f6c634300081c0033","linkReferences":{}},"methodIdentifiers":{"balanceCheck()":"4ba6f28e","deposit()":"d0e30db0","withdraw(uint256)":"2e1a7d4d"},"id":20}